{
  "contractName": "Count",
  "abi": [
    {
      "constant": false,
      "inputs": [],
      "name": "increment",
      "outputs": [
        {
          "internalType": "int256",
          "name": "",
          "type": "int256"
        }
      ],
      "payable": false,
      "stateMutability": "nonpayable",
      "type": "function"
    },
    {
      "constant": true,
      "inputs": [],
      "name": "getCount",
      "outputs": [
        {
          "internalType": "int256",
          "name": "",
          "type": "int256"
        }
      ],
      "payable": false,
      "stateMutability": "view",
      "type": "function"
    }
  ],
  "bytecode": "0x608060405234801561001057600080fd5b5060c78061001f6000396000f3fe6080604052348015600f57600080fd5b506004361060325760003560e01c8063a87d942c146037578063d09de08a146053575b600080fd5b603d606f565b6040518082815260200191505060405180910390f35b60596078565b6040518082815260200191505060405180910390f35b60008054905090565b60006001600080828254019250508190555060005490509056fea265627a7a72315820bc5d34980f075f3f9c304c4b5d943e581df8aa259a8e1d078e8af3c406cd438e64736f6c634300050c0032",
  "source": "pragma solidity ^0.5.0;\n\ncontract Count {\n    int count;\n\n    function increment() public returns (int) {\n        count += 1;\n        return count;\n    }\n\n    function getCount() public view returns (int) {\n        return count;\n    }\n}\n",
  "sourcePath": "/Users/panagiotisganelis/Projects/mern-eth-counter/ganache-cli/contracts/Count.sol",
  "compiler": {
    "name": "solc",
    "version": "0.5.12+commit.7709ece9.Emscripten.clang"
  },
  "schemaVersion": "3.0.19",
  "updatedAt": "2019-12-04T08:56:49.893Z",
  "networkType": "ethereum",
  "devdoc": {
    "methods": {}
  },
  "userdoc": {
    "methods": {}
  }
}